{
  "_format": "hh-sol-artifact-1",
  "contractName": "GamingTokenRewardSize",
  "sourceName": "contracts/GamingTokenRewardSize.sol",
  "abi": [
    {
      "anonymous": false,
      "inputs": [
        {
          "indexed": true,
          "internalType": "address",
          "name": "previousOwner",
          "type": "address"
        },
        {
          "indexed": true,
          "internalType": "address",
          "name": "newOwner",
          "type": "address"
        }
      ],
      "name": "OwnershipTransferred",
      "type": "event"
    },
    {
      "inputs": [],
      "name": "_fristTimeGamingRewardTokenSize",
      "outputs": [
        {
          "internalType": "uint256",
          "name": "",
          "type": "uint256"
        }
      ],
      "stateMutability": "view",
      "type": "function"
    },
    {
      "inputs": [],
      "name": "_genericGamingRewardTokenSize",
      "outputs": [
        {
          "internalType": "uint256",
          "name": "",
          "type": "uint256"
        }
      ],
      "stateMutability": "view",
      "type": "function"
    },
    {
      "inputs": [
        {
          "internalType": "uint256",
          "name": "_size",
          "type": "uint256"
        }
      ],
      "name": "changeFirstGamingRewardSize",
      "outputs": [],
      "stateMutability": "nonpayable",
      "type": "function"
    },
    {
      "inputs": [
        {
          "internalType": "uint256",
          "name": "_size",
          "type": "uint256"
        }
      ],
      "name": "changeGenericGamingRewardSize",
      "outputs": [],
      "stateMutability": "nonpayable",
      "type": "function"
    },
    {
      "inputs": [],
      "name": "owner",
      "outputs": [
        {
          "internalType": "address",
          "name": "",
          "type": "address"
        }
      ],
      "stateMutability": "view",
      "type": "function"
    },
    {
      "inputs": [],
      "name": "renounceOwnership",
      "outputs": [],
      "stateMutability": "nonpayable",
      "type": "function"
    },
    {
      "inputs": [
        {
          "internalType": "address",
          "name": "newOwner",
          "type": "address"
        }
      ],
      "name": "transferOwnership",
      "outputs": [],
      "stateMutability": "nonpayable",
      "type": "function"
    }
  ],
  "bytecode": "0x60806040526005600155600160025534801561001a57600080fd5b5061003761002c61003c60201b60201c565b61004460201b60201c565b610108565b600033905090565b60008060009054906101000a900473ffffffffffffffffffffffffffffffffffffffff169050816000806101000a81548173ffffffffffffffffffffffffffffffffffffffff021916908373ffffffffffffffffffffffffffffffffffffffff1602179055508173ffffffffffffffffffffffffffffffffffffffff168173ffffffffffffffffffffffffffffffffffffffff167f8be0079c531659141344cd1fd0a4f28419497f9722a3daafe3b4186f6b6457e060405160405180910390a35050565b610600806101176000396000f3fe608060405234801561001057600080fd5b506004361061007d5760003560e01c80638da5cb5b1161005b5780638da5cb5b146100c457806393d51e3c146100e2578063f2fde38b14610100578063fb06de181461011c5761007d565b80634c6b5178146100825780636c8f00311461009e578063715018a6146100ba575b600080fd5b61009c600480360381019061009791906103af565b61013a565b005b6100b860048036038101906100b391906103af565b61014c565b005b6100c261015e565b005b6100cc610172565b6040516100d9919061041d565b60405180910390f35b6100ea61019b565b6040516100f79190610447565b60405180910390f35b61011a6004803603810190610115919061048e565b6101a1565b005b610124610224565b6040516101319190610447565b60405180910390f35b61014261022a565b8060028190555050565b61015461022a565b8060018190555050565b61016661022a565b61017060006102a8565b565b60008060009054906101000a900473ffffffffffffffffffffffffffffffffffffffff16905090565b60015481565b6101a961022a565b600073ffffffffffffffffffffffffffffffffffffffff168173ffffffffffffffffffffffffffffffffffffffff1603610218576040517f08c379a000000000000000000000000000000000000000000000000000000000815260040161020f9061053e565b60405180910390fd5b610221816102a8565b50565b60025481565b61023261036c565b73ffffffffffffffffffffffffffffffffffffffff16610250610172565b73ffffffffffffffffffffffffffffffffffffffff16146102a6576040517f08c379a000000000000000000000000000000000000000000000000000000000815260040161029d906105aa565b60405180910390fd5b565b60008060009054906101000a900473ffffffffffffffffffffffffffffffffffffffff169050816000806101000a81548173ffffffffffffffffffffffffffffffffffffffff021916908373ffffffffffffffffffffffffffffffffffffffff1602179055508173ffffffffffffffffffffffffffffffffffffffff168173ffffffffffffffffffffffffffffffffffffffff167f8be0079c531659141344cd1fd0a4f28419497f9722a3daafe3b4186f6b6457e060405160405180910390a35050565b600033905090565b600080fd5b6000819050919050565b61038c81610379565b811461039757600080fd5b50565b6000813590506103a981610383565b92915050565b6000602082840312156103c5576103c4610374565b5b60006103d38482850161039a565b91505092915050565b600073ffffffffffffffffffffffffffffffffffffffff82169050919050565b6000610407826103dc565b9050919050565b610417816103fc565b82525050565b6000602082019050610432600083018461040e565b92915050565b61044181610379565b82525050565b600060208201905061045c6000830184610438565b92915050565b61046b816103fc565b811461047657600080fd5b50565b60008135905061048881610462565b92915050565b6000602082840312156104a4576104a3610374565b5b60006104b284828501610479565b91505092915050565b600082825260208201905092915050565b7f4f776e61626c653a206e6577206f776e657220697320746865207a65726f206160008201527f6464726573730000000000000000000000000000000000000000000000000000602082015250565b60006105286026836104bb565b9150610533826104cc565b604082019050919050565b600060208201905081810360008301526105578161051b565b9050919050565b7f4f776e61626c653a2063616c6c6572206973206e6f7420746865206f776e6572600082015250565b60006105946020836104bb565b915061059f8261055e565b602082019050919050565b600060208201905081810360008301526105c381610587565b905091905056fea26469706673582212200df7c386857dc9fb86f924e4da92b3ec8a7045b2494994ec30fe92ab64a79a1d64736f6c63430008110033",
  "linkReferences": {},
  "deployedLinkReferences": {}
}