{
  "_format": "hh-sol-artifact-1",
  "contractName": "PauseTokenStatus",
  "sourceName": "contracts/PauseTokenStatus.sol",
  "abi": [
    {
      "inputs": [],
      "stateMutability": "nonpayable",
      "type": "constructor"
    },
    {
      "anonymous": false,
      "inputs": [
        {
          "indexed": true,
          "internalType": "address",
          "name": "previousOwner",
          "type": "address"
        },
        {
          "indexed": true,
          "internalType": "address",
          "name": "newOwner",
          "type": "address"
        }
      ],
      "name": "OwnershipTransferred",
      "type": "event"
    },
    {
      "inputs": [],
      "name": "PauseToken",
      "outputs": [
        {
          "internalType": "bool",
          "name": "",
          "type": "bool"
        }
      ],
      "stateMutability": "nonpayable",
      "type": "function"
    },
    {
      "inputs": [],
      "name": "blockGiggleTokenStatus",
      "outputs": [
        {
          "internalType": "bool",
          "name": "",
          "type": "bool"
        }
      ],
      "stateMutability": "view",
      "type": "function"
    },
    {
      "inputs": [],
      "name": "owner",
      "outputs": [
        {
          "internalType": "address",
          "name": "",
          "type": "address"
        }
      ],
      "stateMutability": "view",
      "type": "function"
    },
    {
      "inputs": [],
      "name": "renounceOwnership",
      "outputs": [],
      "stateMutability": "nonpayable",
      "type": "function"
    },
    {
      "inputs": [],
      "name": "resumeToken",
      "outputs": [
        {
          "internalType": "bool",
          "name": "",
          "type": "bool"
        }
      ],
      "stateMutability": "nonpayable",
      "type": "function"
    },
    {
      "inputs": [
        {
          "internalType": "address",
          "name": "newOwner",
          "type": "address"
        }
      ],
      "name": "transferOwnership",
      "outputs": [],
      "stateMutability": "nonpayable",
      "type": "function"
    }
  ],
  "bytecode": "0x608060405234801561001057600080fd5b5061002d61002261007360201b60201c565b61007b60201b60201c565b33600160006101000a81548173ffffffffffffffffffffffffffffffffffffffff021916908373ffffffffffffffffffffffffffffffffffffffff16021790555061013f565b600033905090565b60008060009054906101000a900473ffffffffffffffffffffffffffffffffffffffff169050816000806101000a81548173ffffffffffffffffffffffffffffffffffffffff021916908373ffffffffffffffffffffffffffffffffffffffff1602179055508173ffffffffffffffffffffffffffffffffffffffff168173ffffffffffffffffffffffffffffffffffffffff167f8be0079c531659141344cd1fd0a4f28419497f9722a3daafe3b4186f6b6457e060405160405180910390a35050565b6105ae8061014e6000396000f3fe608060405234801561001057600080fd5b50600436106100625760003560e01c8063072a44d4146100675780634862c19314610085578063715018a6146100a3578063881af5b8146100ad5780638da5cb5b146100cb578063f2fde38b146100e9575b600080fd5b61006f610105565b60405161007c9190610394565b60405180910390f35b61008d610118565b60405161009a9190610394565b60405180910390f35b6100ab610143565b005b6100b5610157565b6040516100c29190610394565b60405180910390f35b6100d3610183565b6040516100e091906103f0565b60405180910390f35b61010360048036038101906100fe919061043c565b6101ac565b005b600060149054906101000a900460ff1681565b600061012261022f565b60008060146101000a81548160ff0219169083151502179055506000905090565b61014b61022f565b61015560006102ad565b565b600061016161022f565b6001600060146101000a81548160ff0219169083151502179055506001905090565b60008060009054906101000a900473ffffffffffffffffffffffffffffffffffffffff16905090565b6101b461022f565b600073ffffffffffffffffffffffffffffffffffffffff168173ffffffffffffffffffffffffffffffffffffffff1603610223576040517f08c379a000000000000000000000000000000000000000000000000000000000815260040161021a906104ec565b60405180910390fd5b61022c816102ad565b50565b610237610371565b73ffffffffffffffffffffffffffffffffffffffff16610255610183565b73ffffffffffffffffffffffffffffffffffffffff16146102ab576040517f08c379a00000000000000000000000000000000000000000000000000000000081526004016102a290610558565b60405180910390fd5b565b60008060009054906101000a900473ffffffffffffffffffffffffffffffffffffffff169050816000806101000a81548173ffffffffffffffffffffffffffffffffffffffff021916908373ffffffffffffffffffffffffffffffffffffffff1602179055508173ffffffffffffffffffffffffffffffffffffffff168173ffffffffffffffffffffffffffffffffffffffff167f8be0079c531659141344cd1fd0a4f28419497f9722a3daafe3b4186f6b6457e060405160405180910390a35050565b600033905090565b60008115159050919050565b61038e81610379565b82525050565b60006020820190506103a96000830184610385565b92915050565b600073ffffffffffffffffffffffffffffffffffffffff82169050919050565b60006103da826103af565b9050919050565b6103ea816103cf565b82525050565b600060208201905061040560008301846103e1565b92915050565b600080fd5b610419816103cf565b811461042457600080fd5b50565b60008135905061043681610410565b92915050565b6000602082840312156104525761045161040b565b5b600061046084828501610427565b91505092915050565b600082825260208201905092915050565b7f4f776e61626c653a206e6577206f776e657220697320746865207a65726f206160008201527f6464726573730000000000000000000000000000000000000000000000000000602082015250565b60006104d6602683610469565b91506104e18261047a565b604082019050919050565b60006020820190508181036000830152610505816104c9565b9050919050565b7f4f776e61626c653a2063616c6c6572206973206e6f7420746865206f776e6572600082015250565b6000610542602083610469565b915061054d8261050c565b602082019050919050565b6000602082019050818103600083015261057181610535565b905091905056fea264697066735822122045e2574e29d35b3e9c2cc43cd981771b64b5ba95e581ddd94f85d57dc1b191b864736f6c63430008110033",
  "linkReferences": {},
  "deployedLinkReferences": {}
}