{
  "_format": "hh-sol-artifact-1",
  "contractName": "GiggleToken",
  "sourceName": "contracts/GiggleToken.sol",
  "abi": [
    {
      "inputs": [],
      "stateMutability": "nonpayable",
      "type": "constructor"
    },
    {
      "inputs": [
        {
          "internalType": "address",
          "name": "_address",
          "type": "address"
        },
        {
          "internalType": "string",
          "name": "_message",
          "type": "string"
        }
      ],
      "name": "OwnerNotAllowed",
      "type": "error"
    },
    {
      "inputs": [
        {
          "internalType": "address",
          "name": "_address",
          "type": "address"
        },
        {
          "internalType": "string",
          "name": "_message",
          "type": "string"
        }
      ],
      "name": "PlayerNotRegister",
      "type": "error"
    },
    {
      "inputs": [
        {
          "internalType": "address",
          "name": "_address",
          "type": "address"
        },
        {
          "internalType": "uint256",
          "name": "_rewardSize",
          "type": "uint256"
        },
        {
          "internalType": "string",
          "name": "_message",
          "type": "string"
        }
      ],
      "name": "RewardPointSizeExceed",
      "type": "error"
    },
    {
      "anonymous": false,
      "inputs": [
        {
          "indexed": true,
          "internalType": "address",
          "name": "owner",
          "type": "address"
        },
        {
          "indexed": true,
          "internalType": "address",
          "name": "spender",
          "type": "address"
        },
        {
          "indexed": false,
          "internalType": "uint256",
          "name": "value",
          "type": "uint256"
        }
      ],
      "name": "Approval",
      "type": "event"
    },
    {
      "anonymous": false,
      "inputs": [
        {
          "indexed": false,
          "internalType": "uint256",
          "name": "_uint",
          "type": "uint256"
        }
      ],
      "name": "Log",
      "type": "event"
    },
    {
      "anonymous": false,
      "inputs": [
        {
          "indexed": true,
          "internalType": "address",
          "name": "previousOwner",
          "type": "address"
        },
        {
          "indexed": true,
          "internalType": "address",
          "name": "newOwner",
          "type": "address"
        }
      ],
      "name": "OwnershipTransferred",
      "type": "event"
    },
    {
      "anonymous": false,
      "inputs": [
        {
          "indexed": false,
          "internalType": "address",
          "name": "_address",
          "type": "address"
        },
        {
          "indexed": false,
          "internalType": "string",
          "name": "_message",
          "type": "string"
        }
      ],
      "name": "PlayerRegister",
      "type": "event"
    },
    {
      "anonymous": false,
      "inputs": [
        {
          "indexed": false,
          "internalType": "address",
          "name": "_address",
          "type": "address"
        },
        {
          "indexed": false,
          "internalType": "uint256",
          "name": "_rewardSize",
          "type": "uint256"
        }
      ],
      "name": "RewardSizeTamper",
      "type": "event"
    },
    {
      "anonymous": false,
      "inputs": [
        {
          "indexed": true,
          "internalType": "address",
          "name": "from",
          "type": "address"
        },
        {
          "indexed": true,
          "internalType": "address",
          "name": "to",
          "type": "address"
        },
        {
          "indexed": false,
          "internalType": "uint256",
          "name": "value",
          "type": "uint256"
        }
      ],
      "name": "Transfer",
      "type": "event"
    },
    {
      "anonymous": false,
      "inputs": [
        {
          "indexed": false,
          "internalType": "address",
          "name": "_address",
          "type": "address"
        },
        {
          "indexed": false,
          "internalType": "uint256",
          "name": "_rewardSize",
          "type": "uint256"
        },
        {
          "indexed": false,
          "internalType": "string",
          "name": "_message",
          "type": "string"
        }
      ],
      "name": "playerClameReward",
      "type": "event"
    },
    {
      "stateMutability": "payable",
      "type": "fallback"
    },
    {
      "inputs": [],
      "name": "PauseToken",
      "outputs": [
        {
          "internalType": "bool",
          "name": "",
          "type": "bool"
        }
      ],
      "stateMutability": "nonpayable",
      "type": "function"
    },
    {
      "inputs": [],
      "name": "_fristTimeGamingRewardTokenSize",
      "outputs": [
        {
          "internalType": "uint256",
          "name": "",
          "type": "uint256"
        }
      ],
      "stateMutability": "view",
      "type": "function"
    },
    {
      "inputs": [],
      "name": "_genericGamingRewardTokenSize",
      "outputs": [
        {
          "internalType": "uint256",
          "name": "",
          "type": "uint256"
        }
      ],
      "stateMutability": "view",
      "type": "function"
    },
    {
      "inputs": [
        {
          "internalType": "uint256",
          "name": "",
          "type": "uint256"
        }
      ],
      "name": "_ledgers",
      "outputs": [
        {
          "internalType": "uint256",
          "name": "_id",
          "type": "uint256"
        },
        {
          "internalType": "address",
          "name": "_from",
          "type": "address"
        },
        {
          "internalType": "address",
          "name": "_to",
          "type": "address"
        },
        {
          "internalType": "uint256",
          "name": "_amount",
          "type": "uint256"
        }
      ],
      "stateMutability": "view",
      "type": "function"
    },
    {
      "inputs": [
        {
          "internalType": "address",
          "name": "",
          "type": "address"
        },
        {
          "internalType": "uint256",
          "name": "",
          "type": "uint256"
        }
      ],
      "name": "_personalLedger",
      "outputs": [
        {
          "internalType": "uint256",
          "name": "_id",
          "type": "uint256"
        },
        {
          "internalType": "address",
          "name": "_from",
          "type": "address"
        },
        {
          "internalType": "address",
          "name": "_to",
          "type": "address"
        },
        {
          "internalType": "uint256",
          "name": "_amount",
          "type": "uint256"
        }
      ],
      "stateMutability": "view",
      "type": "function"
    },
    {
      "inputs": [
        {
          "internalType": "address",
          "name": "owner",
          "type": "address"
        },
        {
          "internalType": "address",
          "name": "spender",
          "type": "address"
        }
      ],
      "name": "allowance",
      "outputs": [
        {
          "internalType": "uint256",
          "name": "",
          "type": "uint256"
        }
      ],
      "stateMutability": "view",
      "type": "function"
    },
    {
      "inputs": [
        {
          "internalType": "address",
          "name": "spender",
          "type": "address"
        },
        {
          "internalType": "uint256",
          "name": "amount",
          "type": "uint256"
        }
      ],
      "name": "approve",
      "outputs": [
        {
          "internalType": "bool",
          "name": "",
          "type": "bool"
        }
      ],
      "stateMutability": "nonpayable",
      "type": "function"
    },
    {
      "inputs": [
        {
          "internalType": "address",
          "name": "account",
          "type": "address"
        }
      ],
      "name": "balanceOf",
      "outputs": [
        {
          "internalType": "uint256",
          "name": "",
          "type": "uint256"
        }
      ],
      "stateMutability": "view",
      "type": "function"
    },
    {
      "inputs": [],
      "name": "blockGiggleTokenStatus",
      "outputs": [
        {
          "internalType": "bool",
          "name": "",
          "type": "bool"
        }
      ],
      "stateMutability": "view",
      "type": "function"
    },
    {
      "inputs": [
        {
          "internalType": "uint256",
          "name": "_size",
          "type": "uint256"
        }
      ],
      "name": "changeFirstGamingRewardSize",
      "outputs": [],
      "stateMutability": "nonpayable",
      "type": "function"
    },
    {
      "inputs": [
        {
          "internalType": "uint256",
          "name": "_size",
          "type": "uint256"
        }
      ],
      "name": "changeGenericGamingRewardSize",
      "outputs": [],
      "stateMutability": "nonpayable",
      "type": "function"
    },
    {
      "inputs": [],
      "name": "decimals",
      "outputs": [
        {
          "internalType": "uint8",
          "name": "",
          "type": "uint8"
        }
      ],
      "stateMutability": "view",
      "type": "function"
    },
    {
      "inputs": [
        {
          "internalType": "address",
          "name": "spender",
          "type": "address"
        },
        {
          "internalType": "uint256",
          "name": "subtractedValue",
          "type": "uint256"
        }
      ],
      "name": "decreaseAllowance",
      "outputs": [
        {
          "internalType": "bool",
          "name": "",
          "type": "bool"
        }
      ],
      "stateMutability": "nonpayable",
      "type": "function"
    },
    {
      "inputs": [],
      "name": "getPersonalLedgers",
      "outputs": [
        {
          "components": [
            {
              "internalType": "uint256",
              "name": "_id",
              "type": "uint256"
            },
            {
              "internalType": "address",
              "name": "_from",
              "type": "address"
            },
            {
              "internalType": "address",
              "name": "_to",
              "type": "address"
            },
            {
              "internalType": "uint256",
              "name": "_amount",
              "type": "uint256"
            }
          ],
          "internalType": "struct GiggleToken.Ledger[]",
          "name": "",
          "type": "tuple[]"
        }
      ],
      "stateMutability": "view",
      "type": "function"
    },
    {
      "inputs": [
        {
          "internalType": "address",
          "name": "spender",
          "type": "address"
        },
        {
          "internalType": "uint256",
          "name": "addedValue",
          "type": "uint256"
        }
      ],
      "name": "increaseAllowance",
      "outputs": [
        {
          "internalType": "bool",
          "name": "",
          "type": "bool"
        }
      ],
      "stateMutability": "nonpayable",
      "type": "function"
    },
    {
      "inputs": [
        {
          "internalType": "uint256",
          "name": "_tokenSize",
          "type": "uint256"
        }
      ],
      "name": "minitToken",
      "outputs": [],
      "stateMutability": "nonpayable",
      "type": "function"
    },
    {
      "inputs": [],
      "name": "name",
      "outputs": [
        {
          "internalType": "string",
          "name": "",
          "type": "string"
        }
      ],
      "stateMutability": "view",
      "type": "function"
    },
    {
      "inputs": [],
      "name": "owner",
      "outputs": [
        {
          "internalType": "address",
          "name": "",
          "type": "address"
        }
      ],
      "stateMutability": "view",
      "type": "function"
    },
    {
      "inputs": [
        {
          "internalType": "uint256",
          "name": "gamingLevelCompleted",
          "type": "uint256"
        }
      ],
      "name": "playerClameRewards",
      "outputs": [],
      "stateMutability": "nonpayable",
      "type": "function"
    },
    {
      "inputs": [],
      "name": "playerEnterGamingZone",
      "outputs": [
        {
          "internalType": "bool",
          "name": "",
          "type": "bool"
        }
      ],
      "stateMutability": "nonpayable",
      "type": "function"
    },
    {
      "inputs": [],
      "name": "renounceOwnership",
      "outputs": [],
      "stateMutability": "nonpayable",
      "type": "function"
    },
    {
      "inputs": [],
      "name": "resumeToken",
      "outputs": [
        {
          "internalType": "bool",
          "name": "",
          "type": "bool"
        }
      ],
      "stateMutability": "nonpayable",
      "type": "function"
    },
    {
      "inputs": [],
      "name": "symbol",
      "outputs": [
        {
          "internalType": "string",
          "name": "",
          "type": "string"
        }
      ],
      "stateMutability": "view",
      "type": "function"
    },
    {
      "inputs": [],
      "name": "totalSupply",
      "outputs": [
        {
          "internalType": "uint256",
          "name": "",
          "type": "uint256"
        }
      ],
      "stateMutability": "view",
      "type": "function"
    },
    {
      "inputs": [
        {
          "internalType": "address",
          "name": "to",
          "type": "address"
        },
        {
          "internalType": "uint256",
          "name": "amount",
          "type": "uint256"
        }
      ],
      "name": "transfer",
      "outputs": [
        {
          "internalType": "bool",
          "name": "",
          "type": "bool"
        }
      ],
      "stateMutability": "nonpayable",
      "type": "function"
    },
    {
      "inputs": [
        {
          "internalType": "address",
          "name": "from",
          "type": "address"
        },
        {
          "internalType": "address",
          "name": "to",
          "type": "address"
        },
        {
          "internalType": "uint256",
          "name": "amount",
          "type": "uint256"
        }
      ],
      "name": "transferFrom",
      "outputs": [
        {
          "internalType": "bool",
          "name": "",
          "type": "bool"
        }
      ],
      "stateMutability": "nonpayable",
      "type": "function"
    },
    {
      "inputs": [
        {
          "internalType": "address",
          "name": "newOwner",
          "type": "address"
        }
      ],
      "name": "transferOwnership",
      "outputs": [],
      "stateMutability": "nonpayable",
      "type": "function"
    },
    {
      "stateMutability": "payable",
      "type": "receive"
    }
  ],
  "bytecode": "0x6080604052600560025560016003556008600d553480156200002057600080fd5b506040518060400160405280600d81526020017f474947474c45205f544f4b454e000000000000000000000000000000000000008152506040518060400160405280600681526020017f47474c5f544b0000000000000000000000000000000000000000000000000000815250620000ad620000a1620001bb60201b60201c565b620001c360201b60201c565b33600160006101000a81548173ffffffffffffffffffffffffffffffffffffffff021916908373ffffffffffffffffffffffffffffffffffffffff1602179055508160079081620000ff91906200068d565b5080600890816200011191906200068d565b50505033600960006101000a81548173ffffffffffffffffffffffffffffffffffffffff021916908373ffffffffffffffffffffffffffffffffffffffff160217905550620001b5600960009054906101000a900473ffffffffffffffffffffffffffffffffffffffff166200018c6200028760201b60201c565b600a6200019a919062000904565b6103e8620001a9919062000955565b6200029060201b60201c565b62000a8c565b600033905090565b60008060009054906101000a900473ffffffffffffffffffffffffffffffffffffffff169050816000806101000a81548173ffffffffffffffffffffffffffffffffffffffff021916908373ffffffffffffffffffffffffffffffffffffffff1602179055508173ffffffffffffffffffffffffffffffffffffffff168173ffffffffffffffffffffffffffffffffffffffff167f8be0079c531659141344cd1fd0a4f28419497f9722a3daafe3b4186f6b6457e060405160405180910390a35050565b60006012905090565b600073ffffffffffffffffffffffffffffffffffffffff168273ffffffffffffffffffffffffffffffffffffffff160362000302576040517f08c379a0000000000000000000000000000000000000000000000000000000008152600401620002f99062000a01565b60405180910390fd5b62000316600083836200040960201b60201c565b80600660008282546200032a919062000a23565b9250508190555080600460008473ffffffffffffffffffffffffffffffffffffffff1673ffffffffffffffffffffffffffffffffffffffff168152602001908152602001600020600082825462000382919062000a23565b925050819055508173ffffffffffffffffffffffffffffffffffffffff16600073ffffffffffffffffffffffffffffffffffffffff167fddf252ad1be2c89b69c2b068fc378daa952ba7f163c4a11628f55a4df523b3ef83604051620003e9919062000a6f565b60405180910390a362000405600083836200040e60201b60201c565b5050565b505050565b505050565b600081519050919050565b7f4e487b7100000000000000000000000000000000000000000000000000000000600052604160045260246000fd5b7f4e487b7100000000000000000000000000000000000000000000000000000000600052602260045260246000fd5b600060028204905060018216806200049557607f821691505b602082108103620004ab57620004aa6200044d565b5b50919050565b60008190508160005260206000209050919050565b60006020601f8301049050919050565b600082821b905092915050565b600060088302620005157fffffffffffffffffffffffffffffffffffffffffffffffffffffffffffffffff82620004d6565b620005218683620004d6565b95508019841693508086168417925050509392505050565b6000819050919050565b6000819050919050565b60006200056e62000568620005628462000539565b62000543565b62000539565b9050919050565b6000819050919050565b6200058a836200054d565b620005a2620005998262000575565b848454620004e3565b825550505050565b600090565b620005b9620005aa565b620005c68184846200057f565b505050565b5b81811015620005ee57620005e2600082620005af565b600181019050620005cc565b5050565b601f8211156200063d576200060781620004b1565b6200061284620004c6565b8101602085101562000622578190505b6200063a6200063185620004c6565b830182620005cb565b50505b505050565b600082821c905092915050565b6000620006626000198460080262000642565b1980831691505092915050565b60006200067d83836200064f565b9150826002028217905092915050565b620006988262000413565b67ffffffffffffffff811115620006b457620006b36200041e565b5b620006c082546200047c565b620006cd828285620005f2565b600060209050601f831160018114620007055760008415620006f0578287015190505b620006fc85826200066f565b8655506200076c565b601f1984166200071586620004b1565b60005b828110156200073f5784890151825560018201915060208501945060208101905062000718565b868310156200075f57848901516200075b601f8916826200064f565b8355505b6001600288020188555050505b505050505050565b7f4e487b7100000000000000000000000000000000000000000000000000000000600052601160045260246000fd5b60008160011c9050919050565b6000808291508390505b60018511156200080257808604811115620007da57620007d962000774565b5b6001851615620007ea5780820291505b8081029050620007fa85620007a3565b9450620007ba565b94509492505050565b6000826200081d5760019050620008f0565b816200082d5760009050620008f0565b8160018114620008465760028114620008515762000887565b6001915050620008f0565b60ff84111562000866576200086562000774565b5b8360020a91508482111562000880576200087f62000774565b5b50620008f0565b5060208310610133831016604e8410600b8410161715620008c15782820a905083811115620008bb57620008ba62000774565b5b620008f0565b620008d08484846001620007b0565b92509050818404811115620008ea57620008e962000774565b5b81810290505b9392505050565b600060ff82169050919050565b6000620009118262000539565b91506200091e83620008f7565b92506200094d7fffffffffffffffffffffffffffffffffffffffffffffffffffffffffffffffff84846200080b565b905092915050565b6000620009628262000539565b91506200096f8362000539565b92508282026200097f8162000539565b9150828204841483151762000999576200099862000774565b5b5092915050565b600082825260208201905092915050565b7f45524332303a206d696e7420746f20746865207a65726f206164647265737300600082015250565b6000620009e9601f83620009a0565b9150620009f682620009b1565b602082019050919050565b6000602082019050818103600083015262000a1c81620009da565b9050919050565b600062000a308262000539565b915062000a3d8362000539565b925082820190508082111562000a585762000a5762000774565b5b92915050565b62000a698162000539565b82525050565b600060208201905062000a86600083018462000a5e565b92915050565b612e358062000a9c6000396000f3fe6080604052600436106101a05760003560e01c8063715018a6116100ec578063c33ab06e1161008a578063dd62ed3e11610064578063dd62ed3e14610680578063ef1733d8146106bd578063f2fde38b146106e6578063fb06de181461070f576101e6565b8063c33ab06e14610601578063ca67a6721461062c578063cc11479514610655576101e6565b806393d51e3c116100c657806393d51e3c1461053157806395d89b411461055c578063a457c2d714610587578063a9059cbb146105c4576101e6565b8063715018a6146104c4578063881af5b8146104db5780638da5cb5b14610506576101e6565b806339509351116101595780634c6b5178116101335780634c6b5178146103f5578063635d54ef1461041e5780636c8f00311461045e57806370a0823114610487576101e6565b8063395093511461034d578063447b9e6f1461038a5780634862c193146103ca576101e6565b806306fdde0314610227578063072a44d414610252578063095ea7b31461027d57806318160ddd146102ba57806323b872dd146102e5578063313ce56714610322576101e6565b366101e6576101e46040518060400160405280600e81526020017f2d2d2d2d2d20726563656976653a0000000000000000000000000000000000008152503461073a565b005b6102256040518060400160405280600f81526020017f2d2d2d2d2d2066616c6c6261636b3a00000000000000000000000000000000008152503461073a565b005b34801561023357600080fd5b5061023c6107d6565b6040516102499190611ffb565b60405180910390f35b34801561025e57600080fd5b50610267610868565b6040516102749190612038565b60405180910390f35b34801561028957600080fd5b506102a4600480360381019061029f91906120ec565b61087b565b6040516102b19190612038565b60405180910390f35b3480156102c657600080fd5b506102cf61089e565b6040516102dc919061213b565b60405180910390f35b3480156102f157600080fd5b5061030c60048036038101906103079190612156565b6108a8565b6040516103199190612038565b60405180910390f35b34801561032e57600080fd5b50610337610938565b60405161034491906121c5565b60405180910390f35b34801561035957600080fd5b50610374600480360381019061036f91906120ec565b610941565b6040516103819190612038565b60405180910390f35b34801561039657600080fd5b506103b160048036038101906103ac91906121e0565b610978565b6040516103c1949392919061221c565b60405180910390f35b3480156103d657600080fd5b506103df6109f8565b6040516103ec9190612038565b60405180910390f35b34801561040157600080fd5b5061041c600480360381019061041791906121e0565b610a23565b005b34801561042a57600080fd5b50610445600480360381019061044091906120ec565b610a35565b604051610455949392919061221c565b60405180910390f35b34801561046a57600080fd5b50610485600480360381019061048091906121e0565b610ac2565b005b34801561049357600080fd5b506104ae60048036038101906104a99190612261565b610ad4565b6040516104bb919061213b565b60405180910390f35b3480156104d057600080fd5b506104d9610b1d565b005b3480156104e757600080fd5b506104f0610b31565b6040516104fd9190612038565b60405180910390f35b34801561051257600080fd5b5061051b610b5d565b604051610528919061228e565b60405180910390f35b34801561053d57600080fd5b50610546610b86565b604051610553919061213b565b60405180910390f35b34801561056857600080fd5b50610571610b8c565b60405161057e9190611ffb565b60405180910390f35b34801561059357600080fd5b506105ae60048036038101906105a991906120ec565b610c1e565b6040516105bb9190612038565b60405180910390f35b3480156105d057600080fd5b506105eb60048036038101906105e691906120ec565b610c95565b6040516105f89190612038565b60405180910390f35b34801561060d57600080fd5b50610616610d0e565b60405161062391906123cb565b60405180910390f35b34801561063857600080fd5b50610653600480360381019061064e91906121e0565b610e6a565b005b34801561066157600080fd5b5061066a610ef7565b6040516106779190612038565b60405180910390f35b34801561068c57600080fd5b506106a760048036038101906106a291906123ed565b611145565b6040516106b4919061213b565b60405180910390f35b3480156106c957600080fd5b506106e460048036038101906106df91906121e0565b6111cc565b005b3480156106f257600080fd5b5061070d60048036038101906107089190612261565b6114aa565b005b34801561071b57600080fd5b5061072461152d565b604051610731919061213b565b60405180910390f35b6107d2828260405160240161075092919061242d565b6040516020818303038152906040527fb60e72cc000000000000000000000000000000000000000000000000000000007bffffffffffffffffffffffffffffffffffffffffffffffffffffffff19166020820180517bffffffffffffffffffffffffffffffffffffffffffffffffffffffff8381831617835250505050611533565b5050565b6060600780546107e59061248c565b80601f01602080910402602001604051908101604052809291908181526020018280546108119061248c565b801561085e5780601f106108335761010080835404028352916020019161085e565b820191906000526020600020905b81548152906001019060200180831161084157829003601f168201915b5050505050905090565b600060149054906101000a900460ff1681565b60008061088661155c565b9050610893818585611564565b600191505092915050565b6000600654905090565b6000801515600060149054906101000a900460ff161515146108ff576040517f08c379a00000000000000000000000000000000000000000000000000000000081526004016108f690612509565b60405180910390fd5b600061090961155c565b905061091685828561172d565b6109218585856117b9565b61092c858585611a3b565b60019150509392505050565b60006012905090565b60008061094c61155c565b905061096d81858561095e8589611145565b6109689190612558565b611564565b600191505092915050565b600a818154811061098857600080fd5b90600052602060002090600402016000915090508060000154908060010160009054906101000a900473ffffffffffffffffffffffffffffffffffffffff16908060020160009054906101000a900473ffffffffffffffffffffffffffffffffffffffff16908060030154905084565b6000610a02611cbf565b60008060146101000a81548160ff0219169083151502179055506000905090565b610a2b611cbf565b8060038190555050565b600b6020528160005260406000208181548110610a5157600080fd5b9060005260206000209060040201600091509150508060000154908060010160009054906101000a900473ffffffffffffffffffffffffffffffffffffffff16908060020160009054906101000a900473ffffffffffffffffffffffffffffffffffffffff16908060030154905084565b610aca611cbf565b8060028190555050565b6000600460008373ffffffffffffffffffffffffffffffffffffffff1673ffffffffffffffffffffffffffffffffffffffff168152602001908152602001600020549050919050565b610b25611cbf565b610b2f6000611d3d565b565b6000610b3b611cbf565b6001600060146101000a81548160ff0219169083151502179055506001905090565b60008060009054906101000a900473ffffffffffffffffffffffffffffffffffffffff16905090565b60025481565b606060088054610b9b9061248c565b80601f0160208091040260200160405190810160405280929190818152602001828054610bc79061248c565b8015610c145780601f10610be957610100808354040283529160200191610c14565b820191906000526020600020905b815481529060010190602001808311610bf757829003601f168201915b5050505050905090565b600080610c2961155c565b90506000610c378286611145565b905083811015610c7c576040517f08c379a0000000000000000000000000000000000000000000000000000000008152600401610c73906125fe565b60405180910390fd5b610c898286868403611564565b60019250505092915050565b6000801515600060149054906101000a900460ff16151514610cec576040517f08c379a0000000000000000000000000000000000000000000000000000000008152600401610ce390612509565b60405180910390fd5b6000610cf661155c565b9050610d038185856117b9565b600191505092915050565b6060600b60003373ffffffffffffffffffffffffffffffffffffffff1673ffffffffffffffffffffffffffffffffffffffff168152602001908152602001600020805480602002602001604051908101604052809291908181526020016000905b82821015610e615783829060005260206000209060040201604051806080016040529081600082015481526020016001820160009054906101000a900473ffffffffffffffffffffffffffffffffffffffff1673ffffffffffffffffffffffffffffffffffffffff1673ffffffffffffffffffffffffffffffffffffffff1681526020016002820160009054906101000a900473ffffffffffffffffffffffffffffffffffffffff1673ffffffffffffffffffffffffffffffffffffffff1673ffffffffffffffffffffffffffffffffffffffff16815260200160038201548152505081526020019060010190610d6f565b50505050905090565b610e72611cbf565b60001515600060149054906101000a900460ff16151514610ec8576040517f08c379a0000000000000000000000000000000000000000000000000000000008152600401610ebf90612509565b60405180910390fd5b610ef4600960009054906101000a900473ffffffffffffffffffffffffffffffffffffffff1682611e01565b50565b6000600960009054906101000a900473ffffffffffffffffffffffffffffffffffffffff1673ffffffffffffffffffffffffffffffffffffffff163373ffffffffffffffffffffffffffffffffffffffff1603610f8b57336040517fb84969bb000000000000000000000000000000000000000000000000000000008152600401610f82919061266a565b60405180910390fd5b600c60003373ffffffffffffffffffffffffffffffffffffffff1673ffffffffffffffffffffffffffffffffffffffff1681526020019081526020016000206002016000815480929190610fde90612698565b919050555033600c60003373ffffffffffffffffffffffffffffffffffffffff1673ffffffffffffffffffffffffffffffffffffffff16815260200190815260200160002060000160006101000a81548173ffffffffffffffffffffffffffffffffffffffff021916908373ffffffffffffffffffffffffffffffffffffffff1602179055506001600c60003373ffffffffffffffffffffffffffffffffffffffff1673ffffffffffffffffffffffffffffffffffffffff16815260200190815260200160002060030160006101000a81548160ff0219169083151502179055506000600c60003373ffffffffffffffffffffffffffffffffffffffff1673ffffffffffffffffffffffffffffffffffffffff168152602001908152602001600020600101819055507f858b834e826c0fbbd5b9e2296f13205506d9e174bb515a2716ce6f8d6fe8252933604051611136919061272c565b60405180910390a16001905090565b6000600560008473ffffffffffffffffffffffffffffffffffffffff1673ffffffffffffffffffffffffffffffffffffffff16815260200190815260200160002060008373ffffffffffffffffffffffffffffffffffffffff1673ffffffffffffffffffffffffffffffffffffffff16815260200190815260200160002054905092915050565b60001515600060149054906101000a900460ff16151514611222576040517f08c379a000000000000000000000000000000000000000000000000000000000815260040161121990612509565b60405180910390fd5b600d548111156112a4577f866d37d066abadc98f127ea893c4d0c2134452e21ca8554990e248ffd3667749338260405161125d92919061275a565b60405180910390a133816040517f11cdbd9700000000000000000000000000000000000000000000000000000000815260040161129b9291906127cf565b60405180910390fd5b6000600c60003373ffffffffffffffffffffffffffffffffffffffff1673ffffffffffffffffffffffffffffffffffffffff168152602001908152602001600020905060008082600201540361133157336040517f09b73c100000000000000000000000000000000000000000000000000000000081526004016113289190612857565b60405180910390fd5b6001826002015403611352578260025461134b9190612885565b9050611363565b826003546113609190612885565b90505b81600201600081548092919061137890612698565b919050555080600c60003373ffffffffffffffffffffffffffffffffffffffff1673ffffffffffffffffffffffffffffffffffffffff168152602001908152602001600020600101546113cb9190612558565b600c60003373ffffffffffffffffffffffffffffffffffffffff1673ffffffffffffffffffffffffffffffffffffffff1681526020019081526020016000206001018190555061143e600160009054906101000a900473ffffffffffffffffffffffffffffffffffffffff163383611564565b61146b600960009054906101000a900473ffffffffffffffffffffffffffffffffffffffff1633836108a8565b507fe64400d58420fd8642a9cdd60925e1810f9428c65170da69540e54f6bf2b336a338260405161149d929190612913565b60405180910390a1505050565b6114b2611cbf565b600073ffffffffffffffffffffffffffffffffffffffff168173ffffffffffffffffffffffffffffffffffffffff1603611521576040517f08c379a0000000000000000000000000000000000000000000000000000000008152600401611518906129c1565b60405180910390fd5b61152a81611d3d565b50565b60035481565b60008151905060006a636f6e736f6c652e6c6f679050602083016000808483855afa5050505050565b600033905090565b600073ffffffffffffffffffffffffffffffffffffffff168373ffffffffffffffffffffffffffffffffffffffff16036115d3576040517f08c379a00000000000000000000000000000000000000000000000000000000081526004016115ca90612a53565b60405180910390fd5b600073ffffffffffffffffffffffffffffffffffffffff168273ffffffffffffffffffffffffffffffffffffffff1603611642576040517f08c379a000000000000000000000000000000000000000000000000000000000815260040161163990612ae5565b60405180910390fd5b80600560008573ffffffffffffffffffffffffffffffffffffffff1673ffffffffffffffffffffffffffffffffffffffff16815260200190815260200160002060008473ffffffffffffffffffffffffffffffffffffffff1673ffffffffffffffffffffffffffffffffffffffff168152602001908152602001600020819055508173ffffffffffffffffffffffffffffffffffffffff168373ffffffffffffffffffffffffffffffffffffffff167f8c5be1e5ebec7d5bd14f71427d1e84f3dd0314c0f7b2291e5b200ac8c7c3b92583604051611720919061213b565b60405180910390a3505050565b60006117398484611145565b90507fffffffffffffffffffffffffffffffffffffffffffffffffffffffffffffffff81146117b357818110156117a5576040517f08c379a000000000000000000000000000000000000000000000000000000000815260040161179c90612b51565b60405180910390fd5b6117b28484848403611564565b5b50505050565b600073ffffffffffffffffffffffffffffffffffffffff168373ffffffffffffffffffffffffffffffffffffffff1603611828576040517f08c379a000000000000000000000000000000000000000000000000000000000815260040161181f90612be3565b60405180910390fd5b600073ffffffffffffffffffffffffffffffffffffffff168273ffffffffffffffffffffffffffffffffffffffff1603611897576040517f08c379a000000000000000000000000000000000000000000000000000000000815260040161188e90612c75565b60405180910390fd5b6118a2838383611f61565b6000600460008573ffffffffffffffffffffffffffffffffffffffff1673ffffffffffffffffffffffffffffffffffffffff16815260200190815260200160002054905081811015611929576040517f08c379a000000000000000000000000000000000000000000000000000000000815260040161192090612d07565b60405180910390fd5b818103600460008673ffffffffffffffffffffffffffffffffffffffff1673ffffffffffffffffffffffffffffffffffffffff1681526020019081526020016000208190555081600460008573ffffffffffffffffffffffffffffffffffffffff1673ffffffffffffffffffffffffffffffffffffffff16815260200190815260200160002060008282546119be9190612558565b925050819055508273ffffffffffffffffffffffffffffffffffffffff168473ffffffffffffffffffffffffffffffffffffffff167fddf252ad1be2c89b69c2b068fc378daa952ba7f163c4a11628f55a4df523b3ef84604051611a22919061213b565b60405180910390a3611a35848484611f66565b50505050565b600a6040518060800160405280600a8054905081526020018573ffffffffffffffffffffffffffffffffffffffff1681526020018473ffffffffffffffffffffffffffffffffffffffff1681526020018381525090806001815401808255809150506001900390600052602060002090600402016000909190919091506000820151816000015560208201518160010160006101000a81548173ffffffffffffffffffffffffffffffffffffffff021916908373ffffffffffffffffffffffffffffffffffffffff16021790555060408201518160020160006101000a81548173ffffffffffffffffffffffffffffffffffffffff021916908373ffffffffffffffffffffffffffffffffffffffff160217905550606082015181600301555050600b60003373ffffffffffffffffffffffffffffffffffffffff1673ffffffffffffffffffffffffffffffffffffffff1681526020019081526020016000206040518060800160405280600a8054905081526020013373ffffffffffffffffffffffffffffffffffffffff1681526020018473ffffffffffffffffffffffffffffffffffffffff1681526020018381525090806001815401808255809150506001900390600052602060002090600402016000909190919091506000820151816000015560208201518160010160006101000a81548173ffffffffffffffffffffffffffffffffffffffff021916908373ffffffffffffffffffffffffffffffffffffffff16021790555060408201518160020160006101000a81548173ffffffffffffffffffffffffffffffffffffffff021916908373ffffffffffffffffffffffffffffffffffffffff160217905550606082015181600301555050505050565b611cc761155c565b73ffffffffffffffffffffffffffffffffffffffff16611ce5610b5d565b73ffffffffffffffffffffffffffffffffffffffff1614611d3b576040517f08c379a0000000000000000000000000000000000000000000000000000000008152600401611d3290612d73565b60405180910390fd5b565b60008060009054906101000a900473ffffffffffffffffffffffffffffffffffffffff169050816000806101000a81548173ffffffffffffffffffffffffffffffffffffffff021916908373ffffffffffffffffffffffffffffffffffffffff1602179055508173ffffffffffffffffffffffffffffffffffffffff168173ffffffffffffffffffffffffffffffffffffffff167f8be0079c531659141344cd1fd0a4f28419497f9722a3daafe3b4186f6b6457e060405160405180910390a35050565b600073ffffffffffffffffffffffffffffffffffffffff168273ffffffffffffffffffffffffffffffffffffffff1603611e70576040517f08c379a0000000000000000000000000000000000000000000000000000000008152600401611e6790612ddf565b60405180910390fd5b611e7c60008383611f61565b8060066000828254611e8e9190612558565b9250508190555080600460008473ffffffffffffffffffffffffffffffffffffffff1673ffffffffffffffffffffffffffffffffffffffff1681526020019081526020016000206000828254611ee49190612558565b925050819055508173ffffffffffffffffffffffffffffffffffffffff16600073ffffffffffffffffffffffffffffffffffffffff167fddf252ad1be2c89b69c2b068fc378daa952ba7f163c4a11628f55a4df523b3ef83604051611f49919061213b565b60405180910390a3611f5d60008383611f66565b5050565b505050565b505050565b600081519050919050565b600082825260208201905092915050565b60005b83811015611fa5578082015181840152602081019050611f8a565b60008484015250505050565b6000601f19601f8301169050919050565b6000611fcd82611f6b565b611fd78185611f76565b9350611fe7818560208601611f87565b611ff081611fb1565b840191505092915050565b600060208201905081810360008301526120158184611fc2565b905092915050565b60008115159050919050565b6120328161201d565b82525050565b600060208201905061204d6000830184612029565b92915050565b600080fd5b600073ffffffffffffffffffffffffffffffffffffffff82169050919050565b600061208382612058565b9050919050565b61209381612078565b811461209e57600080fd5b50565b6000813590506120b08161208a565b92915050565b6000819050919050565b6120c9816120b6565b81146120d457600080fd5b50565b6000813590506120e6816120c0565b92915050565b6000806040838503121561210357612102612053565b5b6000612111858286016120a1565b9250506020612122858286016120d7565b9150509250929050565b612135816120b6565b82525050565b6000602082019050612150600083018461212c565b92915050565b60008060006060848603121561216f5761216e612053565b5b600061217d868287016120a1565b935050602061218e868287016120a1565b925050604061219f868287016120d7565b9150509250925092565b600060ff82169050919050565b6121bf816121a9565b82525050565b60006020820190506121da60008301846121b6565b92915050565b6000602082840312156121f6576121f5612053565b5b6000612204848285016120d7565b91505092915050565b61221681612078565b82525050565b6000608082019050612231600083018761212c565b61223e602083018661220d565b61224b604083018561220d565b612258606083018461212c565b95945050505050565b60006020828403121561227757612276612053565b5b6000612285848285016120a1565b91505092915050565b60006020820190506122a3600083018461220d565b92915050565b600081519050919050565b600082825260208201905092915050565b6000819050602082019050919050565b6122de816120b6565b82525050565b6122ed81612078565b82525050565b60808201600082015161230960008501826122d5565b50602082015161231c60208501826122e4565b50604082015161232f60408501826122e4565b50606082015161234260608501826122d5565b50505050565b600061235483836122f3565b60808301905092915050565b6000602082019050919050565b6000612378826122a9565b61238281856122b4565b935061238d836122c5565b8060005b838110156123be5781516123a58882612348565b97506123b083612360565b925050600181019050612391565b5085935050505092915050565b600060208201905081810360008301526123e5818461236d565b905092915050565b6000806040838503121561240457612403612053565b5b6000612412858286016120a1565b9250506020612423858286016120a1565b9150509250929050565b600060408201905081810360008301526124478185611fc2565b9050612456602083018461212c565b9392505050565b7f4e487b7100000000000000000000000000000000000000000000000000000000600052602260045260246000fd5b600060028204905060018216806124a457607f821691505b6020821081036124b7576124b661245d565b5b50919050565b7f544f4b454e205452414e534645522041524520424c4f434b4544000000000000600082015250565b60006124f3601a83611f76565b91506124fe826124bd565b602082019050919050565b60006020820190508181036000830152612522816124e6565b9050919050565b7f4e487b7100000000000000000000000000000000000000000000000000000000600052601160045260246000fd5b6000612563826120b6565b915061256e836120b6565b925082820190508082111561258657612585612529565b5b92915050565b7f45524332303a2064656372656173656420616c6c6f77616e63652062656c6f7760008201527f207a65726f000000000000000000000000000000000000000000000000000000602082015250565b60006125e8602583611f76565b91506125f38261258c565b604082019050919050565b60006020820190508181036000830152612617816125db565b9050919050565b7f4f776e657220417265204e6f7420416c6c6f7765640000000000000000000000600082015250565b6000612654601583611f76565b915061265f8261261e565b602082019050919050565b600060408201905061267f600083018461220d565b818103602083015261269081612647565b905092915050565b60006126a3826120b6565b91507fffffffffffffffffffffffffffffffffffffffffffffffffffffffffffffffff82036126d5576126d4612529565b5b600182019050919050565b7f506c617965722052656769737465720000000000000000000000000000000000600082015250565b6000612716600f83611f76565b9150612721826126e0565b602082019050919050565b6000604082019050612741600083018461220d565b818103602083015261275281612709565b905092915050565b600060408201905061276f600083018561220d565b61277c602083018461212c565b9392505050565b7f52657761726453697a65204d6f64696669656400000000000000000000000000600082015250565b60006127b9601383611f76565b91506127c482612783565b602082019050919050565b60006060820190506127e4600083018561220d565b6127f1602083018461212c565b8181036040830152612802816127ac565b90509392505050565b7f506c61796572204e6f7420526567697374657200000000000000000000000000600082015250565b6000612841601383611f76565b915061284c8261280b565b602082019050919050565b600060408201905061286c600083018461220d565b818103602083015261287d81612834565b905092915050565b6000612890826120b6565b915061289b836120b6565b92508282026128a9816120b6565b915082820484148315176128c0576128bf612529565b5b5092915050565b7f5375636365737366756c6c6c7920436c616d6564000000000000000000000000600082015250565b60006128fd601483611f76565b9150612908826128c7565b602082019050919050565b6000606082019050612928600083018561220d565b612935602083018461212c565b8181036040830152612946816128f0565b90509392505050565b7f4f776e61626c653a206e6577206f776e657220697320746865207a65726f206160008201527f6464726573730000000000000000000000000000000000000000000000000000602082015250565b60006129ab602683611f76565b91506129b68261294f565b604082019050919050565b600060208201905081810360008301526129da8161299e565b9050919050565b7f45524332303a20617070726f76652066726f6d20746865207a65726f2061646460008201527f7265737300000000000000000000000000000000000000000000000000000000602082015250565b6000612a3d602483611f76565b9150612a48826129e1565b604082019050919050565b60006020820190508181036000830152612a6c81612a30565b9050919050565b7f45524332303a20617070726f766520746f20746865207a65726f20616464726560008201527f7373000000000000000000000000000000000000000000000000000000000000602082015250565b6000612acf602283611f76565b9150612ada82612a73565b604082019050919050565b60006020820190508181036000830152612afe81612ac2565b9050919050565b7f45524332303a20696e73756666696369656e7420616c6c6f77616e6365000000600082015250565b6000612b3b601d83611f76565b9150612b4682612b05565b602082019050919050565b60006020820190508181036000830152612b6a81612b2e565b9050919050565b7f45524332303a207472616e736665722066726f6d20746865207a65726f20616460008201527f6472657373000000000000000000000000000000000000000000000000000000602082015250565b6000612bcd602583611f76565b9150612bd882612b71565b604082019050919050565b60006020820190508181036000830152612bfc81612bc0565b9050919050565b7f45524332303a207472616e7366657220746f20746865207a65726f206164647260008201527f6573730000000000000000000000000000000000000000000000000000000000602082015250565b6000612c5f602383611f76565b9150612c6a82612c03565b604082019050919050565b60006020820190508181036000830152612c8e81612c52565b9050919050565b7f45524332303a207472616e7366657220616d6f756e742065786365656473206260008201527f616c616e63650000000000000000000000000000000000000000000000000000602082015250565b6000612cf1602683611f76565b9150612cfc82612c95565b604082019050919050565b60006020820190508181036000830152612d2081612ce4565b9050919050565b7f4f776e61626c653a2063616c6c6572206973206e6f7420746865206f776e6572600082015250565b6000612d5d602083611f76565b9150612d6882612d27565b602082019050919050565b60006020820190508181036000830152612d8c81612d50565b9050919050565b7f45524332303a206d696e7420746f20746865207a65726f206164647265737300600082015250565b6000612dc9601f83611f76565b9150612dd482612d93565b602082019050919050565b60006020820190508181036000830152612df881612dbc565b905091905056fea2646970667358221220732ccbd8f9aeaa5ad2ffb804b9eac51b993403edc0ab8d1358bb8485ca76b5d564736f6c63430008110033",
  "linkReferences": {},
  "deployedLinkReferences": {}
}