{
  "_format": "hh-sol-artifact-1",
  "contractName": "GiggleToken",
  "sourceName": "contracts/GiggleToken.sol",
  "abi": [
    {
      "inputs": [],
      "stateMutability": "nonpayable",
      "type": "constructor"
    },
    {
      "inputs": [
        {
          "internalType": "address",
          "name": "_address",
          "type": "address"
        },
        {
          "internalType": "string",
          "name": "_message",
          "type": "string"
        }
      ],
      "name": "OwnerNotAllowed",
      "type": "error"
    },
    {
      "inputs": [
        {
          "internalType": "address",
          "name": "_address",
          "type": "address"
        },
        {
          "internalType": "string",
          "name": "_message",
          "type": "string"
        }
      ],
      "name": "PlayerNotRegister",
      "type": "error"
    },
    {
      "inputs": [
        {
          "internalType": "address",
          "name": "_address",
          "type": "address"
        },
        {
          "internalType": "uint256",
          "name": "_rewardSize",
          "type": "uint256"
        },
        {
          "internalType": "string",
          "name": "_message",
          "type": "string"
        }
      ],
      "name": "RewardPointSizeExceed",
      "type": "error"
    },
    {
      "anonymous": false,
      "inputs": [
        {
          "indexed": true,
          "internalType": "address",
          "name": "owner",
          "type": "address"
        },
        {
          "indexed": true,
          "internalType": "address",
          "name": "spender",
          "type": "address"
        },
        {
          "indexed": false,
          "internalType": "uint256",
          "name": "value",
          "type": "uint256"
        }
      ],
      "name": "Approval",
      "type": "event"
    },
    {
      "anonymous": false,
      "inputs": [
        {
          "indexed": false,
          "internalType": "uint256",
          "name": "_uint",
          "type": "uint256"
        }
      ],
      "name": "Log",
      "type": "event"
    },
    {
      "anonymous": false,
      "inputs": [
        {
          "indexed": true,
          "internalType": "address",
          "name": "previousOwner",
          "type": "address"
        },
        {
          "indexed": true,
          "internalType": "address",
          "name": "newOwner",
          "type": "address"
        }
      ],
      "name": "OwnershipTransferred",
      "type": "event"
    },
    {
      "anonymous": false,
      "inputs": [
        {
          "indexed": false,
          "internalType": "address",
          "name": "_address",
          "type": "address"
        },
        {
          "indexed": false,
          "internalType": "string",
          "name": "_message",
          "type": "string"
        }
      ],
      "name": "PlayerRegister",
      "type": "event"
    },
    {
      "anonymous": false,
      "inputs": [
        {
          "indexed": false,
          "internalType": "address",
          "name": "_address",
          "type": "address"
        },
        {
          "indexed": false,
          "internalType": "uint256",
          "name": "_rewardSize",
          "type": "uint256"
        }
      ],
      "name": "RewardSizeTamper",
      "type": "event"
    },
    {
      "anonymous": false,
      "inputs": [
        {
          "indexed": true,
          "internalType": "address",
          "name": "from",
          "type": "address"
        },
        {
          "indexed": true,
          "internalType": "address",
          "name": "to",
          "type": "address"
        },
        {
          "indexed": false,
          "internalType": "uint256",
          "name": "value",
          "type": "uint256"
        }
      ],
      "name": "Transfer",
      "type": "event"
    },
    {
      "anonymous": false,
      "inputs": [
        {
          "indexed": false,
          "internalType": "address",
          "name": "_address",
          "type": "address"
        },
        {
          "indexed": false,
          "internalType": "uint256",
          "name": "_rewardSize",
          "type": "uint256"
        },
        {
          "indexed": false,
          "internalType": "string",
          "name": "_message",
          "type": "string"
        }
      ],
      "name": "playerClameReward",
      "type": "event"
    },
    {
      "inputs": [],
      "name": "PauseToken",
      "outputs": [
        {
          "internalType": "bool",
          "name": "",
          "type": "bool"
        }
      ],
      "stateMutability": "nonpayable",
      "type": "function"
    },
    {
      "inputs": [],
      "name": "_fristTimeGamingRewardTokenSize",
      "outputs": [
        {
          "internalType": "uint256",
          "name": "",
          "type": "uint256"
        }
      ],
      "stateMutability": "view",
      "type": "function"
    },
    {
      "inputs": [],
      "name": "_genericGamingRewardTokenSize",
      "outputs": [
        {
          "internalType": "uint256",
          "name": "",
          "type": "uint256"
        }
      ],
      "stateMutability": "view",
      "type": "function"
    },
    {
      "inputs": [
        {
          "internalType": "uint256",
          "name": "",
          "type": "uint256"
        }
      ],
      "name": "_ledgers",
      "outputs": [
        {
          "internalType": "uint256",
          "name": "_id",
          "type": "uint256"
        },
        {
          "internalType": "address",
          "name": "_from",
          "type": "address"
        },
        {
          "internalType": "address",
          "name": "_to",
          "type": "address"
        },
        {
          "internalType": "uint256",
          "name": "_amount",
          "type": "uint256"
        }
      ],
      "stateMutability": "view",
      "type": "function"
    },
    {
      "inputs": [
        {
          "internalType": "address",
          "name": "",
          "type": "address"
        },
        {
          "internalType": "uint256",
          "name": "",
          "type": "uint256"
        }
      ],
      "name": "_personalLedger",
      "outputs": [
        {
          "internalType": "uint256",
          "name": "_id",
          "type": "uint256"
        },
        {
          "internalType": "address",
          "name": "_from",
          "type": "address"
        },
        {
          "internalType": "address",
          "name": "_to",
          "type": "address"
        },
        {
          "internalType": "uint256",
          "name": "_amount",
          "type": "uint256"
        }
      ],
      "stateMutability": "view",
      "type": "function"
    },
    {
      "inputs": [
        {
          "internalType": "address",
          "name": "owner",
          "type": "address"
        },
        {
          "internalType": "address",
          "name": "spender",
          "type": "address"
        }
      ],
      "name": "allowance",
      "outputs": [
        {
          "internalType": "uint256",
          "name": "",
          "type": "uint256"
        }
      ],
      "stateMutability": "view",
      "type": "function"
    },
    {
      "inputs": [
        {
          "internalType": "address",
          "name": "spender",
          "type": "address"
        },
        {
          "internalType": "uint256",
          "name": "amount",
          "type": "uint256"
        }
      ],
      "name": "approve",
      "outputs": [
        {
          "internalType": "bool",
          "name": "",
          "type": "bool"
        }
      ],
      "stateMutability": "nonpayable",
      "type": "function"
    },
    {
      "inputs": [
        {
          "internalType": "address",
          "name": "account",
          "type": "address"
        }
      ],
      "name": "balanceOf",
      "outputs": [
        {
          "internalType": "uint256",
          "name": "",
          "type": "uint256"
        }
      ],
      "stateMutability": "view",
      "type": "function"
    },
    {
      "inputs": [],
      "name": "blockGiggleTokenStatus",
      "outputs": [
        {
          "internalType": "bool",
          "name": "",
          "type": "bool"
        }
      ],
      "stateMutability": "view",
      "type": "function"
    },
    {
      "inputs": [
        {
          "internalType": "uint256",
          "name": "_size",
          "type": "uint256"
        }
      ],
      "name": "changeFirstGamingRewardSize",
      "outputs": [],
      "stateMutability": "nonpayable",
      "type": "function"
    },
    {
      "inputs": [
        {
          "internalType": "uint256",
          "name": "_size",
          "type": "uint256"
        }
      ],
      "name": "changeGenericGamingRewardSize",
      "outputs": [],
      "stateMutability": "nonpayable",
      "type": "function"
    },
    {
      "inputs": [],
      "name": "decimals",
      "outputs": [
        {
          "internalType": "uint8",
          "name": "",
          "type": "uint8"
        }
      ],
      "stateMutability": "view",
      "type": "function"
    },
    {
      "inputs": [
        {
          "internalType": "address",
          "name": "spender",
          "type": "address"
        },
        {
          "internalType": "uint256",
          "name": "subtractedValue",
          "type": "uint256"
        }
      ],
      "name": "decreaseAllowance",
      "outputs": [
        {
          "internalType": "bool",
          "name": "",
          "type": "bool"
        }
      ],
      "stateMutability": "nonpayable",
      "type": "function"
    },
    {
      "inputs": [],
      "name": "getPersonalLedgers",
      "outputs": [
        {
          "components": [
            {
              "internalType": "uint256",
              "name": "_id",
              "type": "uint256"
            },
            {
              "internalType": "address",
              "name": "_from",
              "type": "address"
            },
            {
              "internalType": "address",
              "name": "_to",
              "type": "address"
            },
            {
              "internalType": "uint256",
              "name": "_amount",
              "type": "uint256"
            }
          ],
          "internalType": "struct GiggleToken.Ledger[]",
          "name": "",
          "type": "tuple[]"
        }
      ],
      "stateMutability": "view",
      "type": "function"
    },
    {
      "inputs": [
        {
          "internalType": "address",
          "name": "spender",
          "type": "address"
        },
        {
          "internalType": "uint256",
          "name": "addedValue",
          "type": "uint256"
        }
      ],
      "name": "increaseAllowance",
      "outputs": [
        {
          "internalType": "bool",
          "name": "",
          "type": "bool"
        }
      ],
      "stateMutability": "nonpayable",
      "type": "function"
    },
    {
      "inputs": [
        {
          "internalType": "uint256",
          "name": "_tokenSize",
          "type": "uint256"
        }
      ],
      "name": "minitToken",
      "outputs": [],
      "stateMutability": "nonpayable",
      "type": "function"
    },
    {
      "inputs": [],
      "name": "name",
      "outputs": [
        {
          "internalType": "string",
          "name": "",
          "type": "string"
        }
      ],
      "stateMutability": "view",
      "type": "function"
    },
    {
      "inputs": [],
      "name": "owner",
      "outputs": [
        {
          "internalType": "address",
          "name": "",
          "type": "address"
        }
      ],
      "stateMutability": "view",
      "type": "function"
    },
    {
      "inputs": [
        {
          "internalType": "uint256",
          "name": "gamingLevelCompleted",
          "type": "uint256"
        }
      ],
      "name": "playerClameRewards",
      "outputs": [],
      "stateMutability": "nonpayable",
      "type": "function"
    },
    {
      "inputs": [],
      "name": "playerEnterGamingZone",
      "outputs": [
        {
          "internalType": "bool",
          "name": "",
          "type": "bool"
        }
      ],
      "stateMutability": "nonpayable",
      "type": "function"
    },
    {
      "inputs": [],
      "name": "renounceOwnership",
      "outputs": [],
      "stateMutability": "nonpayable",
      "type": "function"
    },
    {
      "inputs": [],
      "name": "resumeToken",
      "outputs": [
        {
          "internalType": "bool",
          "name": "",
          "type": "bool"
        }
      ],
      "stateMutability": "nonpayable",
      "type": "function"
    },
    {
      "inputs": [],
      "name": "symbol",
      "outputs": [
        {
          "internalType": "string",
          "name": "",
          "type": "string"
        }
      ],
      "stateMutability": "view",
      "type": "function"
    },
    {
      "inputs": [],
      "name": "totalSupply",
      "outputs": [
        {
          "internalType": "uint256",
          "name": "",
          "type": "uint256"
        }
      ],
      "stateMutability": "view",
      "type": "function"
    },
    {
      "inputs": [
        {
          "internalType": "address",
          "name": "to",
          "type": "address"
        },
        {
          "internalType": "uint256",
          "name": "amount",
          "type": "uint256"
        }
      ],
      "name": "transfer",
      "outputs": [
        {
          "internalType": "bool",
          "name": "",
          "type": "bool"
        }
      ],
      "stateMutability": "nonpayable",
      "type": "function"
    },
    {
      "inputs": [
        {
          "internalType": "address",
          "name": "from",
          "type": "address"
        },
        {
          "internalType": "address",
          "name": "to",
          "type": "address"
        },
        {
          "internalType": "uint256",
          "name": "amount",
          "type": "uint256"
        }
      ],
      "name": "transferFrom",
      "outputs": [
        {
          "internalType": "bool",
          "name": "",
          "type": "bool"
        }
      ],
      "stateMutability": "nonpayable",
      "type": "function"
    },
    {
      "inputs": [
        {
          "internalType": "address",
          "name": "newOwner",
          "type": "address"
        }
      ],
      "name": "transferOwnership",
      "outputs": [],
      "stateMutability": "nonpayable",
      "type": "function"
    }
  ],
  "bytecode": "0x6080604052600560025560016003556008600d553480156200002057600080fd5b506040518060400160405280600d81526020017f474947474c45205f544f4b454e000000000000000000000000000000000000008152506040518060400160405280600681526020017f47474c5f544b0000000000000000000000000000000000000000000000000000815250620000ad620000a1620001bb60201b60201c565b620001c360201b60201c565b33600160006101000a81548173ffffffffffffffffffffffffffffffffffffffff021916908373ffffffffffffffffffffffffffffffffffffffff1602179055508160079081620000ff91906200068d565b5080600890816200011191906200068d565b50505033600960006101000a81548173ffffffffffffffffffffffffffffffffffffffff021916908373ffffffffffffffffffffffffffffffffffffffff160217905550620001b5600960009054906101000a900473ffffffffffffffffffffffffffffffffffffffff166200018c6200028760201b60201c565b600a6200019a919062000904565b6103e8620001a9919062000955565b6200029060201b60201c565b62000a8c565b600033905090565b60008060009054906101000a900473ffffffffffffffffffffffffffffffffffffffff169050816000806101000a81548173ffffffffffffffffffffffffffffffffffffffff021916908373ffffffffffffffffffffffffffffffffffffffff1602179055508173ffffffffffffffffffffffffffffffffffffffff168173ffffffffffffffffffffffffffffffffffffffff167f8be0079c531659141344cd1fd0a4f28419497f9722a3daafe3b4186f6b6457e060405160405180910390a35050565b60006012905090565b600073ffffffffffffffffffffffffffffffffffffffff168273ffffffffffffffffffffffffffffffffffffffff160362000302576040517f08c379a0000000000000000000000000000000000000000000000000000000008152600401620002f99062000a01565b60405180910390fd5b62000316600083836200040960201b60201c565b80600660008282546200032a919062000a23565b9250508190555080600460008473ffffffffffffffffffffffffffffffffffffffff1673ffffffffffffffffffffffffffffffffffffffff168152602001908152602001600020600082825462000382919062000a23565b925050819055508173ffffffffffffffffffffffffffffffffffffffff16600073ffffffffffffffffffffffffffffffffffffffff167fddf252ad1be2c89b69c2b068fc378daa952ba7f163c4a11628f55a4df523b3ef83604051620003e9919062000a6f565b60405180910390a362000405600083836200040e60201b60201c565b5050565b505050565b505050565b600081519050919050565b7f4e487b7100000000000000000000000000000000000000000000000000000000600052604160045260246000fd5b7f4e487b7100000000000000000000000000000000000000000000000000000000600052602260045260246000fd5b600060028204905060018216806200049557607f821691505b602082108103620004ab57620004aa6200044d565b5b50919050565b60008190508160005260206000209050919050565b60006020601f8301049050919050565b600082821b905092915050565b600060088302620005157fffffffffffffffffffffffffffffffffffffffffffffffffffffffffffffffff82620004d6565b620005218683620004d6565b95508019841693508086168417925050509392505050565b6000819050919050565b6000819050919050565b60006200056e62000568620005628462000539565b62000543565b62000539565b9050919050565b6000819050919050565b6200058a836200054d565b620005a2620005998262000575565b848454620004e3565b825550505050565b600090565b620005b9620005aa565b620005c68184846200057f565b505050565b5b81811015620005ee57620005e2600082620005af565b600181019050620005cc565b5050565b601f8211156200063d576200060781620004b1565b6200061284620004c6565b8101602085101562000622578190505b6200063a6200063185620004c6565b830182620005cb565b50505b505050565b600082821c905092915050565b6000620006626000198460080262000642565b1980831691505092915050565b60006200067d83836200064f565b9150826002028217905092915050565b620006988262000413565b67ffffffffffffffff811115620006b457620006b36200041e565b5b620006c082546200047c565b620006cd828285620005f2565b600060209050601f831160018114620007055760008415620006f0578287015190505b620006fc85826200066f565b8655506200076c565b601f1984166200071586620004b1565b60005b828110156200073f5784890151825560018201915060208501945060208101905062000718565b868310156200075f57848901516200075b601f8916826200064f565b8355505b6001600288020188555050505b505050505050565b7f4e487b7100000000000000000000000000000000000000000000000000000000600052601160045260246000fd5b60008160011c9050919050565b6000808291508390505b60018511156200080257808604811115620007da57620007d962000774565b5b6001851615620007ea5780820291505b8081029050620007fa85620007a3565b9450620007ba565b94509492505050565b6000826200081d5760019050620008f0565b816200082d5760009050620008f0565b8160018114620008465760028114620008515762000887565b6001915050620008f0565b60ff84111562000866576200086562000774565b5b8360020a91508482111562000880576200087f62000774565b5b50620008f0565b5060208310610133831016604e8410600b8410161715620008c15782820a905083811115620008bb57620008ba62000774565b5b620008f0565b620008d08484846001620007b0565b92509050818404811115620008ea57620008e962000774565b5b81810290505b9392505050565b600060ff82169050919050565b6000620009118262000539565b91506200091e83620008f7565b92506200094d7fffffffffffffffffffffffffffffffffffffffffffffffffffffffffffffffff84846200080b565b905092915050565b6000620009628262000539565b91506200096f8362000539565b92508282026200097f8162000539565b9150828204841483151762000999576200099862000774565b5b5092915050565b600082825260208201905092915050565b7f45524332303a206d696e7420746f20746865207a65726f206164647265737300600082015250565b6000620009e9601f83620009a0565b9150620009f682620009b1565b602082019050919050565b6000602082019050818103600083015262000a1c81620009da565b9050919050565b600062000a308262000539565b915062000a3d8362000539565b925082820190508082111562000a585762000a5762000774565b5b92915050565b62000a698162000539565b82525050565b600060208201905062000a86600083018462000a5e565b92915050565b612b688062000a9c6000396000f3fe608060405234801561001057600080fd5b50600436106101a95760003560e01c8063715018a6116100f9578063c33ab06e11610097578063dd62ed3e11610071578063dd62ed3e146104dc578063ef1733d81461050c578063f2fde38b14610528578063fb06de1814610544576101a9565b8063c33ab06e14610484578063ca67a672146104a2578063cc114795146104be576101a9565b806393d51e3c116100d357806393d51e3c146103e857806395d89b4114610406578063a457c2d714610424578063a9059cbb14610454576101a9565b8063715018a6146103a2578063881af5b8146103ac5780638da5cb5b146103ca576101a9565b806339509351116101665780634c6b5178116101405780634c6b517814610307578063635d54ef146103235780636c8f00311461035657806370a0823114610372576101a9565b80633950935114610286578063447b9e6f146102b65780634862c193146102e9576101a9565b806306fdde03146101ae578063072a44d4146101cc578063095ea7b3146101ea57806318160ddd1461021a57806323b872dd14610238578063313ce56714610268575b600080fd5b6101b6610562565b6040516101c39190611d5e565b60405180910390f35b6101d46105f4565b6040516101e19190611d9b565b60405180910390f35b61020460048036038101906101ff9190611e4f565b610607565b6040516102119190611d9b565b60405180910390f35b61022261062a565b60405161022f9190611e9e565b60405180910390f35b610252600480360381019061024d9190611eb9565b610634565b60405161025f9190611d9b565b60405180910390f35b6102706106c4565b60405161027d9190611f28565b60405180910390f35b6102a0600480360381019061029b9190611e4f565b6106cd565b6040516102ad9190611d9b565b60405180910390f35b6102d060048036038101906102cb9190611f43565b610704565b6040516102e09493929190611f7f565b60405180910390f35b6102f1610784565b6040516102fe9190611d9b565b60405180910390f35b610321600480360381019061031c9190611f43565b6107af565b005b61033d60048036038101906103389190611e4f565b6107c1565b60405161034d9493929190611f7f565b60405180910390f35b610370600480360381019061036b9190611f43565b61084e565b005b61038c60048036038101906103879190611fc4565b610860565b6040516103999190611e9e565b60405180910390f35b6103aa6108a9565b005b6103b46108bd565b6040516103c19190611d9b565b60405180910390f35b6103d26108e9565b6040516103df9190611ff1565b60405180910390f35b6103f0610912565b6040516103fd9190611e9e565b60405180910390f35b61040e610918565b60405161041b9190611d5e565b60405180910390f35b61043e60048036038101906104399190611e4f565b6109aa565b60405161044b9190611d9b565b60405180910390f35b61046e60048036038101906104699190611e4f565b610a21565b60405161047b9190611d9b565b60405180910390f35b61048c610a9a565b604051610499919061212e565b60405180910390f35b6104bc60048036038101906104b79190611f43565b610bf6565b005b6104c6610c83565b6040516104d39190611d9b565b60405180910390f35b6104f660048036038101906104f19190612150565b610ed1565b6040516105039190611e9e565b60405180910390f35b61052660048036038101906105219190611f43565b610f58565b005b610542600480360381019061053d9190611fc4565b611236565b005b61054c6112b9565b6040516105599190611e9e565b60405180910390f35b606060078054610571906121bf565b80601f016020809104026020016040519081016040528092919081815260200182805461059d906121bf565b80156105ea5780601f106105bf576101008083540402835291602001916105ea565b820191906000526020600020905b8154815290600101906020018083116105cd57829003601f168201915b5050505050905090565b600060149054906101000a900460ff1681565b6000806106126112bf565b905061061f8185856112c7565b600191505092915050565b6000600654905090565b6000801515600060149054906101000a900460ff1615151461068b576040517f08c379a00000000000000000000000000000000000000000000000000000000081526004016106829061223c565b60405180910390fd5b60006106956112bf565b90506106a2858285611490565b6106ad85858561151c565b6106b885858561179e565b60019150509392505050565b60006012905090565b6000806106d86112bf565b90506106f98185856106ea8589610ed1565b6106f4919061228b565b6112c7565b600191505092915050565b600a818154811061071457600080fd5b90600052602060002090600402016000915090508060000154908060010160009054906101000a900473ffffffffffffffffffffffffffffffffffffffff16908060020160009054906101000a900473ffffffffffffffffffffffffffffffffffffffff16908060030154905084565b600061078e611a22565b60008060146101000a81548160ff0219169083151502179055506000905090565b6107b7611a22565b8060038190555050565b600b60205281600052604060002081815481106107dd57600080fd5b9060005260206000209060040201600091509150508060000154908060010160009054906101000a900473ffffffffffffffffffffffffffffffffffffffff16908060020160009054906101000a900473ffffffffffffffffffffffffffffffffffffffff16908060030154905084565b610856611a22565b8060028190555050565b6000600460008373ffffffffffffffffffffffffffffffffffffffff1673ffffffffffffffffffffffffffffffffffffffff168152602001908152602001600020549050919050565b6108b1611a22565b6108bb6000611aa0565b565b60006108c7611a22565b6001600060146101000a81548160ff0219169083151502179055506001905090565b60008060009054906101000a900473ffffffffffffffffffffffffffffffffffffffff16905090565b60025481565b606060088054610927906121bf565b80601f0160208091040260200160405190810160405280929190818152602001828054610953906121bf565b80156109a05780601f10610975576101008083540402835291602001916109a0565b820191906000526020600020905b81548152906001019060200180831161098357829003601f168201915b5050505050905090565b6000806109b56112bf565b905060006109c38286610ed1565b905083811015610a08576040517f08c379a00000000000000000000000000000000000000000000000000000000081526004016109ff90612331565b60405180910390fd5b610a1582868684036112c7565b60019250505092915050565b6000801515600060149054906101000a900460ff16151514610a78576040517f08c379a0000000000000000000000000000000000000000000000000000000008152600401610a6f9061223c565b60405180910390fd5b6000610a826112bf565b9050610a8f81858561151c565b600191505092915050565b6060600b60003373ffffffffffffffffffffffffffffffffffffffff1673ffffffffffffffffffffffffffffffffffffffff168152602001908152602001600020805480602002602001604051908101604052809291908181526020016000905b82821015610bed5783829060005260206000209060040201604051806080016040529081600082015481526020016001820160009054906101000a900473ffffffffffffffffffffffffffffffffffffffff1673ffffffffffffffffffffffffffffffffffffffff1673ffffffffffffffffffffffffffffffffffffffff1681526020016002820160009054906101000a900473ffffffffffffffffffffffffffffffffffffffff1673ffffffffffffffffffffffffffffffffffffffff1673ffffffffffffffffffffffffffffffffffffffff16815260200160038201548152505081526020019060010190610afb565b50505050905090565b610bfe611a22565b60001515600060149054906101000a900460ff16151514610c54576040517f08c379a0000000000000000000000000000000000000000000000000000000008152600401610c4b9061223c565b60405180910390fd5b610c80600960009054906101000a900473ffffffffffffffffffffffffffffffffffffffff1682611b64565b50565b6000600960009054906101000a900473ffffffffffffffffffffffffffffffffffffffff1673ffffffffffffffffffffffffffffffffffffffff163373ffffffffffffffffffffffffffffffffffffffff1603610d1757336040517fb84969bb000000000000000000000000000000000000000000000000000000008152600401610d0e919061239d565b60405180910390fd5b600c60003373ffffffffffffffffffffffffffffffffffffffff1673ffffffffffffffffffffffffffffffffffffffff1681526020019081526020016000206002016000815480929190610d6a906123cb565b919050555033600c60003373ffffffffffffffffffffffffffffffffffffffff1673ffffffffffffffffffffffffffffffffffffffff16815260200190815260200160002060000160006101000a81548173ffffffffffffffffffffffffffffffffffffffff021916908373ffffffffffffffffffffffffffffffffffffffff1602179055506001600c60003373ffffffffffffffffffffffffffffffffffffffff1673ffffffffffffffffffffffffffffffffffffffff16815260200190815260200160002060030160006101000a81548160ff0219169083151502179055506000600c60003373ffffffffffffffffffffffffffffffffffffffff1673ffffffffffffffffffffffffffffffffffffffff168152602001908152602001600020600101819055507f858b834e826c0fbbd5b9e2296f13205506d9e174bb515a2716ce6f8d6fe8252933604051610ec2919061245f565b60405180910390a16001905090565b6000600560008473ffffffffffffffffffffffffffffffffffffffff1673ffffffffffffffffffffffffffffffffffffffff16815260200190815260200160002060008373ffffffffffffffffffffffffffffffffffffffff1673ffffffffffffffffffffffffffffffffffffffff16815260200190815260200160002054905092915050565b60001515600060149054906101000a900460ff16151514610fae576040517f08c379a0000000000000000000000000000000000000000000000000000000008152600401610fa59061223c565b60405180910390fd5b600d54811115611030577f866d37d066abadc98f127ea893c4d0c2134452e21ca8554990e248ffd36677493382604051610fe992919061248d565b60405180910390a133816040517f11cdbd97000000000000000000000000000000000000000000000000000000008152600401611027929190612502565b60405180910390fd5b6000600c60003373ffffffffffffffffffffffffffffffffffffffff1673ffffffffffffffffffffffffffffffffffffffff16815260200190815260200160002090506000808260020154036110bd57336040517f09b73c100000000000000000000000000000000000000000000000000000000081526004016110b4919061258a565b60405180910390fd5b60018260020154036110de57826002546110d791906125b8565b90506110ef565b826003546110ec91906125b8565b90505b816002016000815480929190611104906123cb565b919050555080600c60003373ffffffffffffffffffffffffffffffffffffffff1673ffffffffffffffffffffffffffffffffffffffff16815260200190815260200160002060010154611157919061228b565b600c60003373ffffffffffffffffffffffffffffffffffffffff1673ffffffffffffffffffffffffffffffffffffffff168152602001908152602001600020600101819055506111ca600160009054906101000a900473ffffffffffffffffffffffffffffffffffffffff1633836112c7565b6111f7600960009054906101000a900473ffffffffffffffffffffffffffffffffffffffff163383610634565b507fe64400d58420fd8642a9cdd60925e1810f9428c65170da69540e54f6bf2b336a3382604051611229929190612646565b60405180910390a1505050565b61123e611a22565b600073ffffffffffffffffffffffffffffffffffffffff168173ffffffffffffffffffffffffffffffffffffffff16036112ad576040517f08c379a00000000000000000000000000000000000000000000000000000000081526004016112a4906126f4565b60405180910390fd5b6112b681611aa0565b50565b60035481565b600033905090565b600073ffffffffffffffffffffffffffffffffffffffff168373ffffffffffffffffffffffffffffffffffffffff1603611336576040517f08c379a000000000000000000000000000000000000000000000000000000000815260040161132d90612786565b60405180910390fd5b600073ffffffffffffffffffffffffffffffffffffffff168273ffffffffffffffffffffffffffffffffffffffff16036113a5576040517f08c379a000000000000000000000000000000000000000000000000000000000815260040161139c90612818565b60405180910390fd5b80600560008573ffffffffffffffffffffffffffffffffffffffff1673ffffffffffffffffffffffffffffffffffffffff16815260200190815260200160002060008473ffffffffffffffffffffffffffffffffffffffff1673ffffffffffffffffffffffffffffffffffffffff168152602001908152602001600020819055508173ffffffffffffffffffffffffffffffffffffffff168373ffffffffffffffffffffffffffffffffffffffff167f8c5be1e5ebec7d5bd14f71427d1e84f3dd0314c0f7b2291e5b200ac8c7c3b925836040516114839190611e9e565b60405180910390a3505050565b600061149c8484610ed1565b90507fffffffffffffffffffffffffffffffffffffffffffffffffffffffffffffffff81146115165781811015611508576040517f08c379a00000000000000000000000000000000000000000000000000000000081526004016114ff90612884565b60405180910390fd5b61151584848484036112c7565b5b50505050565b600073ffffffffffffffffffffffffffffffffffffffff168373ffffffffffffffffffffffffffffffffffffffff160361158b576040517f08c379a000000000000000000000000000000000000000000000000000000000815260040161158290612916565b60405180910390fd5b600073ffffffffffffffffffffffffffffffffffffffff168273ffffffffffffffffffffffffffffffffffffffff16036115fa576040517f08c379a00000000000000000000000000000000000000000000000000000000081526004016115f1906129a8565b60405180910390fd5b611605838383611cc4565b6000600460008573ffffffffffffffffffffffffffffffffffffffff1673ffffffffffffffffffffffffffffffffffffffff1681526020019081526020016000205490508181101561168c576040517f08c379a000000000000000000000000000000000000000000000000000000000815260040161168390612a3a565b60405180910390fd5b818103600460008673ffffffffffffffffffffffffffffffffffffffff1673ffffffffffffffffffffffffffffffffffffffff1681526020019081526020016000208190555081600460008573ffffffffffffffffffffffffffffffffffffffff1673ffffffffffffffffffffffffffffffffffffffff1681526020019081526020016000206000828254611721919061228b565b925050819055508273ffffffffffffffffffffffffffffffffffffffff168473ffffffffffffffffffffffffffffffffffffffff167fddf252ad1be2c89b69c2b068fc378daa952ba7f163c4a11628f55a4df523b3ef846040516117859190611e9e565b60405180910390a3611798848484611cc9565b50505050565b600a6040518060800160405280600a8054905081526020018573ffffffffffffffffffffffffffffffffffffffff1681526020018473ffffffffffffffffffffffffffffffffffffffff1681526020018381525090806001815401808255809150506001900390600052602060002090600402016000909190919091506000820151816000015560208201518160010160006101000a81548173ffffffffffffffffffffffffffffffffffffffff021916908373ffffffffffffffffffffffffffffffffffffffff16021790555060408201518160020160006101000a81548173ffffffffffffffffffffffffffffffffffffffff021916908373ffffffffffffffffffffffffffffffffffffffff160217905550606082015181600301555050600b60003373ffffffffffffffffffffffffffffffffffffffff1673ffffffffffffffffffffffffffffffffffffffff1681526020019081526020016000206040518060800160405280600a8054905081526020013373ffffffffffffffffffffffffffffffffffffffff1681526020018473ffffffffffffffffffffffffffffffffffffffff1681526020018381525090806001815401808255809150506001900390600052602060002090600402016000909190919091506000820151816000015560208201518160010160006101000a81548173ffffffffffffffffffffffffffffffffffffffff021916908373ffffffffffffffffffffffffffffffffffffffff16021790555060408201518160020160006101000a81548173ffffffffffffffffffffffffffffffffffffffff021916908373ffffffffffffffffffffffffffffffffffffffff160217905550606082015181600301555050505050565b611a2a6112bf565b73ffffffffffffffffffffffffffffffffffffffff16611a486108e9565b73ffffffffffffffffffffffffffffffffffffffff1614611a9e576040517f08c379a0000000000000000000000000000000000000000000000000000000008152600401611a9590612aa6565b60405180910390fd5b565b60008060009054906101000a900473ffffffffffffffffffffffffffffffffffffffff169050816000806101000a81548173ffffffffffffffffffffffffffffffffffffffff021916908373ffffffffffffffffffffffffffffffffffffffff1602179055508173ffffffffffffffffffffffffffffffffffffffff168173ffffffffffffffffffffffffffffffffffffffff167f8be0079c531659141344cd1fd0a4f28419497f9722a3daafe3b4186f6b6457e060405160405180910390a35050565b600073ffffffffffffffffffffffffffffffffffffffff168273ffffffffffffffffffffffffffffffffffffffff1603611bd3576040517f08c379a0000000000000000000000000000000000000000000000000000000008152600401611bca90612b12565b60405180910390fd5b611bdf60008383611cc4565b8060066000828254611bf1919061228b565b9250508190555080600460008473ffffffffffffffffffffffffffffffffffffffff1673ffffffffffffffffffffffffffffffffffffffff1681526020019081526020016000206000828254611c47919061228b565b925050819055508173ffffffffffffffffffffffffffffffffffffffff16600073ffffffffffffffffffffffffffffffffffffffff167fddf252ad1be2c89b69c2b068fc378daa952ba7f163c4a11628f55a4df523b3ef83604051611cac9190611e9e565b60405180910390a3611cc060008383611cc9565b5050565b505050565b505050565b600081519050919050565b600082825260208201905092915050565b60005b83811015611d08578082015181840152602081019050611ced565b60008484015250505050565b6000601f19601f8301169050919050565b6000611d3082611cce565b611d3a8185611cd9565b9350611d4a818560208601611cea565b611d5381611d14565b840191505092915050565b60006020820190508181036000830152611d788184611d25565b905092915050565b60008115159050919050565b611d9581611d80565b82525050565b6000602082019050611db06000830184611d8c565b92915050565b600080fd5b600073ffffffffffffffffffffffffffffffffffffffff82169050919050565b6000611de682611dbb565b9050919050565b611df681611ddb565b8114611e0157600080fd5b50565b600081359050611e1381611ded565b92915050565b6000819050919050565b611e2c81611e19565b8114611e3757600080fd5b50565b600081359050611e4981611e23565b92915050565b60008060408385031215611e6657611e65611db6565b5b6000611e7485828601611e04565b9250506020611e8585828601611e3a565b9150509250929050565b611e9881611e19565b82525050565b6000602082019050611eb36000830184611e8f565b92915050565b600080600060608486031215611ed257611ed1611db6565b5b6000611ee086828701611e04565b9350506020611ef186828701611e04565b9250506040611f0286828701611e3a565b9150509250925092565b600060ff82169050919050565b611f2281611f0c565b82525050565b6000602082019050611f3d6000830184611f19565b92915050565b600060208284031215611f5957611f58611db6565b5b6000611f6784828501611e3a565b91505092915050565b611f7981611ddb565b82525050565b6000608082019050611f946000830187611e8f565b611fa16020830186611f70565b611fae6040830185611f70565b611fbb6060830184611e8f565b95945050505050565b600060208284031215611fda57611fd9611db6565b5b6000611fe884828501611e04565b91505092915050565b60006020820190506120066000830184611f70565b92915050565b600081519050919050565b600082825260208201905092915050565b6000819050602082019050919050565b61204181611e19565b82525050565b61205081611ddb565b82525050565b60808201600082015161206c6000850182612038565b50602082015161207f6020850182612047565b5060408201516120926040850182612047565b5060608201516120a56060850182612038565b50505050565b60006120b78383612056565b60808301905092915050565b6000602082019050919050565b60006120db8261200c565b6120e58185612017565b93506120f083612028565b8060005b8381101561212157815161210888826120ab565b9750612113836120c3565b9250506001810190506120f4565b5085935050505092915050565b6000602082019050818103600083015261214881846120d0565b905092915050565b6000806040838503121561216757612166611db6565b5b600061217585828601611e04565b925050602061218685828601611e04565b9150509250929050565b7f4e487b7100000000000000000000000000000000000000000000000000000000600052602260045260246000fd5b600060028204905060018216806121d757607f821691505b6020821081036121ea576121e9612190565b5b50919050565b7f544f4b454e205452414e534645522041524520424c4f434b4544000000000000600082015250565b6000612226601a83611cd9565b9150612231826121f0565b602082019050919050565b6000602082019050818103600083015261225581612219565b9050919050565b7f4e487b7100000000000000000000000000000000000000000000000000000000600052601160045260246000fd5b600061229682611e19565b91506122a183611e19565b92508282019050808211156122b9576122b861225c565b5b92915050565b7f45524332303a2064656372656173656420616c6c6f77616e63652062656c6f7760008201527f207a65726f000000000000000000000000000000000000000000000000000000602082015250565b600061231b602583611cd9565b9150612326826122bf565b604082019050919050565b6000602082019050818103600083015261234a8161230e565b9050919050565b7f4f776e657220417265204e6f7420416c6c6f7765640000000000000000000000600082015250565b6000612387601583611cd9565b915061239282612351565b602082019050919050565b60006040820190506123b26000830184611f70565b81810360208301526123c38161237a565b905092915050565b60006123d682611e19565b91507fffffffffffffffffffffffffffffffffffffffffffffffffffffffffffffffff82036124085761240761225c565b5b600182019050919050565b7f506c617965722052656769737465720000000000000000000000000000000000600082015250565b6000612449600f83611cd9565b915061245482612413565b602082019050919050565b60006040820190506124746000830184611f70565b81810360208301526124858161243c565b905092915050565b60006040820190506124a26000830185611f70565b6124af6020830184611e8f565b9392505050565b7f52657761726453697a65204d6f64696669656400000000000000000000000000600082015250565b60006124ec601383611cd9565b91506124f7826124b6565b602082019050919050565b60006060820190506125176000830185611f70565b6125246020830184611e8f565b8181036040830152612535816124df565b90509392505050565b7f506c61796572204e6f7420526567697374657200000000000000000000000000600082015250565b6000612574601383611cd9565b915061257f8261253e565b602082019050919050565b600060408201905061259f6000830184611f70565b81810360208301526125b081612567565b905092915050565b60006125c382611e19565b91506125ce83611e19565b92508282026125dc81611e19565b915082820484148315176125f3576125f261225c565b5b5092915050565b7f5375636365737366756c6c6c7920436c616d6564000000000000000000000000600082015250565b6000612630601483611cd9565b915061263b826125fa565b602082019050919050565b600060608201905061265b6000830185611f70565b6126686020830184611e8f565b818103604083015261267981612623565b90509392505050565b7f4f776e61626c653a206e6577206f776e657220697320746865207a65726f206160008201527f6464726573730000000000000000000000000000000000000000000000000000602082015250565b60006126de602683611cd9565b91506126e982612682565b604082019050919050565b6000602082019050818103600083015261270d816126d1565b9050919050565b7f45524332303a20617070726f76652066726f6d20746865207a65726f2061646460008201527f7265737300000000000000000000000000000000000000000000000000000000602082015250565b6000612770602483611cd9565b915061277b82612714565b604082019050919050565b6000602082019050818103600083015261279f81612763565b9050919050565b7f45524332303a20617070726f766520746f20746865207a65726f20616464726560008201527f7373000000000000000000000000000000000000000000000000000000000000602082015250565b6000612802602283611cd9565b915061280d826127a6565b604082019050919050565b60006020820190508181036000830152612831816127f5565b9050919050565b7f45524332303a20696e73756666696369656e7420616c6c6f77616e6365000000600082015250565b600061286e601d83611cd9565b915061287982612838565b602082019050919050565b6000602082019050818103600083015261289d81612861565b9050919050565b7f45524332303a207472616e736665722066726f6d20746865207a65726f20616460008201527f6472657373000000000000000000000000000000000000000000000000000000602082015250565b6000612900602583611cd9565b915061290b826128a4565b604082019050919050565b6000602082019050818103600083015261292f816128f3565b9050919050565b7f45524332303a207472616e7366657220746f20746865207a65726f206164647260008201527f6573730000000000000000000000000000000000000000000000000000000000602082015250565b6000612992602383611cd9565b915061299d82612936565b604082019050919050565b600060208201905081810360008301526129c181612985565b9050919050565b7f45524332303a207472616e7366657220616d6f756e742065786365656473206260008201527f616c616e63650000000000000000000000000000000000000000000000000000602082015250565b6000612a24602683611cd9565b9150612a2f826129c8565b604082019050919050565b60006020820190508181036000830152612a5381612a17565b9050919050565b7f4f776e61626c653a2063616c6c6572206973206e6f7420746865206f776e6572600082015250565b6000612a90602083611cd9565b9150612a9b82612a5a565b602082019050919050565b60006020820190508181036000830152612abf81612a83565b9050919050565b7f45524332303a206d696e7420746f20746865207a65726f206164647265737300600082015250565b6000612afc601f83611cd9565b9150612b0782612ac6565b602082019050919050565b60006020820190508181036000830152612b2b81612aef565b905091905056fea2646970667358221220d5e31dd359b2fb7d7e796ece3b5904f0c7c1f4e005c971056be2d952ed0cb38664736f6c63430008110033",
  "linkReferences": {},
  "deployedLinkReferences": {}
}